:020000040800F2
:10000000D80400209D010008FB1A000815170008FD
:10001000F91A00088D0200082524000800000000DD
:10002000000000000000000000000000D11D0008DA
:100030008F020008000000001D1B0008D31D0008EF
:10004000B7010008B7010008B7010008B7010008B0
:10005000B7010008B7010008B7010008B7010008A0
:10006000B7010008B7010008B7010008B701000890
:10007000B7010008B7010008B7010008B701000880
:10008000B7010008B7010008B7010008B701000870
:10009000B7010008B7010008B7010008BF02000857
:1000A000B7010008B7010008B7010008B701000850
:1000B000B11E0008B7010008B7010008B701000829
:1000C000B7010008B7010008B7010008B701000830
:1000D000B7010008B7010008B7010008B701000820
:1000E00091020008B7010008B7010008B701000835
:1000F000B7010008B7010008B7010008B701000800
:10010000B7010008B7010008B7010008B7010008EF
:10011000B7010008B7010008B7010008B7010008DF
:10012000B7010008B7010008B7010008B7010008CF
:10013000B7010008B7010008B7010008B7010008BF
:10014000B7010008B7010008B7010008B7010008AF
:10015000B7010008B7010008B7010008B70100089F
:10016000B7010008B7010008B7010008B70100088F
:10017000B7010008B70100080000000000000000FF
:10018000B7010008B7010008DFF80CD000F06CF8E8
:100190000048004745240008D8040020064880474E
:1001A00006480047FEE7FEE7FEE7FEE7FEE7FEE75C
:1001B000FEE7FEE7FEE7FEE76D1E00088901000886
:1001C0002DE9F05F0546002092469B46884606468C
:1001D000814640241BE0284641464746224600F01F
:1001E00032F853465A46C01A914110D31146184668
:1001F000224600F019F82D1A67EB01084F462246F7
:100200000120002100F010F817EB00094E41201EDC
:10021000A4F10104DFDC484631462A46434600F09B
:1002200000B830BCBDE8C09F202A04DB203A00FAA9
:1002300002F1002070479140C2F1200320FA03F33D
:10024000194390407047202A04DB203A21FA02F03B
:100250000021704721FA02F3D040C2F12002914000
:100260000843194670470000064C074D06E0E06859
:1002700040F0010394E8070098471034AC42F6D3ED
:10028000FFF786FFC0240008E0240008FEE770475F
:1002900010B54FF4806000F0F3F84FF4006000F008
:1002A000EFF84FF4005000F0EBF84FF4804000F00E
:1002B000E7F8BDE810404FF4004000F0E1B810B599
:1002C000202000F0DDF8402000F0DAF8802000F077
:1002D000D7F8BDE810404FF4807000F0D1B82DE998
:1002E000F0470446407900270E4601280BD04FF016
:1002F000010984F8059002202071306802F0100591
:10030000042803D043E00220BDE8F0874FF0030843
:1003100002BB00F0AFF9074604E000F0ABF9C01BE8
:1003200001280FD82068406B0004F6D4012000F0AB
:1003300097F82168B069086416E000F09BF9C01BCB
:10034000012807D9206940F00800206184F8048062
:100350000320D9E72068406B0028EEDB012000F085
:100360007FF82168B06948642068816C40F2FF32F0
:10037000AA409143F269AA40114381642068C16C8C
:10038000FF22AA409143326AAA401143C1643069F6
:10039000012808D12268916B1F20A8408143706911
:1003A000A840084390632268D16B0720A84081438E
:1003B000B36830681843F3681843A8400843D06313
:1003C000206801684FF48042AA409143016022688E
:1003D000116840F6FC70A84081437068A84008434B
:1003E000106020680168C022AA409143016084F82F
:1003F00004900020607187E770B5040003D0207975
:10040000002510B105E0012070BD6571204600F0A7
:1004100007F802202071256101202071002070BDA5
:1004200000B500680C4987B0884213D10B48816D34
:1004300041F000518165806D694600F000500590E3
:100440003020009003200190002002904FF0904057
:1004500000F022F807B000BD007400400010024018
:1004600070B5044600F006F90546601C00D0641C17
:1004700000F000F9401BA042FAD370BD70470000A5
:10048000044910B50A68024202D00860FFF7F6FF7F
:1004900010BD0000140401402DE9F84FDFF898B1B9
:1004A00000234FF0010C4FF0030A4FF00F090BF13E
:1004B000040EB9E00CFA03F4224070D04D68022D0E
:1004C00001D0122D0ED1DD0800EB8508D8F82050A0
:1004D0005E07F70E09FA07F6B5430E69BE402E43D4
:1004E000C8F8206007685E0091F804800AFA06F5F3
:1004F00008F00308AF4308FA06F848EA0708C0F80E
:1005000000804F68012F05D0022F03D0112F01D09A
:10051000122F13D1D0F80880CF6828EA0508B74019
:1005200047EA08078760D0F804800F7928EA0408B2
:10053000C7F300179F4047EA08074760D1F80480D7
:100540006FEA0807BF0706D1C76AA743C8F3C0040C
:100550009C403C43C462C468AC438D68B5402543AD
:10056000C5604C68E4005ED5344C256E45F001054D
:100570002566246E23F0030504F001040094304C3A
:100580002E19B4689D072F0F09FA07F5AC43B0F197
:10059000904F05D02B4DA84204D101251CE042E02C
:1005A000002519E0284DA84201D1022514E0274D6D
:1005B000A84201D103250FE0254DA84201D1042511
:1005C0000AE0244DA84201D1052505E0224DA842AC
:1005D00001D1062500E00725BD402543B560DBF8C5
:1005E00000405D464E689443F60300D514432C60EA
:1005F000DEF8004075464E689443B60300D51443B8
:100600002C600D4D08352C684E689443F60200D5D9
:1006100014432C60084D0C352C684E689443B60288
:1006200000D514432C605B1C0A6832FA03F57FF492
:1006300041AF00F013B80000000401400010024078
:10064000000001400004004800080048000C004879
:1006500000100048001400480018004818BCBDE80D
:10066000E08F42694A40426170470AB18161704738
:100670008162704701480068704700000000002058
:1006800002480168491C016070470000000000201A
:1006900010B50024032000F08FF8002000F008F8C7
:1006A00008B1012401E000F01BF8204610BD000055
:1006B00070B5054609484FF47A7100240068B0FB14
:1006C000F1F000F0E6FD08B1012404E00022294623
:1006D000501E00F051F8204670BD000004000020BC
:1006E0001E4808B5016E41F001010166016E01F07E
:1006F00001010091816D41F080518165806D00F0B4
:1007000080500090032000F057F8002211466FF04F
:100710000B0000F031F8002211466FF00A0000F0E3
:100720002BF8002211466FF0090000F025F8002296
:100730001146501F00F020F800221146101F00F053
:100740001BF800221146901E00F016F80022BDE8AA
:1007500008401146501E00F00FB800000010024083
:1007600000F01F02012191404009800000F1E020CB
:10077000C0F8001170470000F0B40E4B1B680C4627
:10078000C3F30223C3F10705042D00D90425191D65
:10079000072901D2002300E0DB1E012606FA05F13D
:1007A000491E214099409E40761E16403143F0BCC0
:1007B00001F0A4B90CED00E0064900F0070208685A
:1007C0004FF6FF03184040EA0220034A1043086036
:1007D000704700000CED00E00000FA051649B0F586
:1007E000007F0868C0F3412009D0022805D00868BE
:1007F00020F4C06040F48060086000207047012849
:10080000FBD0086820F4C06040F4007008600B481A
:100810003222006850430A4AB0FBF2F0401C00E06C
:10082000401E4A69520501D50028F9D148694005A2
:10083000E3D5032070470000007000400400002052
:1008400040420F000248006800F4C060704700009A
:10085000007000402DE9F84F044600270088E54D60
:100860003E46010504F1200B1DD5606E78B1B0F550
:10087000800F11D0B0F5000F04D0B0F5400F22D09A
:1008800001270FE0E86840F48030E8601BE00021B9
:10089000201D01F045F903E00021584601F0D6F98A
:1008A000070010D03E462088C00426D5A06EC0B1F7
:1008B000B0F1807F1AD0B0F1007F0DD0B0F1407F51
:1008C00019D0012718E0D5F88800616E20F44000A7
:1008D0000843C5F88800E6E7E86840F48030E8603F
:1008E00009E00021201D01F01BF903E0002158461A
:1008F00001F0ACF90746F7B13E46206880033AD5CF
:10090000A86D4FF00008C00009D4A86D40F08050D9
:10091000A865A86D4FF0010800F080500090DFF846
:10092000D8A2DAF8001041F48071CAF80010FFF77D
:10093000A1FE814610E0D5F88800A16E20F040703D
:100940000843C5F88800D8E7FFF794FEA0EB09003C
:10095000022801D9032705E0DAF80000C005F3D525
:10096000002F7CD04FEA0706B8F1000F03D0A86D26
:1009700020F08050A8652078C00707D0D5F88800FF
:10098000A16B20F003000843C5F888002078800799
:1009900007D5D5F88800E16B20F00C000843C5F8B6
:1009A00088002078400707D5D5F88800216C20F012
:1009B00030000843C5F888002078000707D5D5F82F
:1009C0008800616C20F0C0000843C5F888002078DA
:1009D000C00607D5D5F88800A16C20F44070084304
:1009E000C5F888002078800607D5D5F88800E16C26
:1009F00020F440600843C5F888002088800507D5AA
:100A0000D5F88800E16D20F440200843C5F888003F
:100A10002088400507D5D5F88800216E20F44010C5
:100A20000843C5F888002078400607D5D5F8880027
:100A3000216D20F440500843C5F888002078000656
:100A400007D5D5F88800616D20F440400843C5F80B
:100A500088002088C00509D5D5F8880000E01CE092
:100A6000A16D20F440300843C5F8880020884FF07D
:100A7000006780044FF080684FD5D5F88800E16E9C
:100A800020F040600843C5F88800E06EB8423CD1D1
:100A9000E86840F48010E8603FE0D5F8900010F47A
:100AA000407015D0D4F88410814211D0D5F8900050
:100AB000D5F8901020F4407041F48031C5F89010C2
:100AC000D5F8901021F48031C5F89010C5F8900049
:100AD000C00710D0FFF7CEFD074641F2883906E087
:100AE000FFF7C8FDC11B494501D903263CE7D5F8EE
:100AF00090008007F4D5D5F89000D4F8841020F445
:100B000040700843C5F890002EE7404505D101210B
:100B1000201D01F005F800B106462068000317D536
:100B2000D5F88800216F20F040600843C5F88800A0
:100B3000206FB84204D1E86840F48010E86007E014
:100B4000404505D10121201D00F0EAFF00B1064615
:100B50002068400317D5D5F88800616F20F0406009
:100B60000843C5F88800606FB84204D1E86840F4D3
:100B70008010E86007E0404505D10121201D00F00C
:100B8000CFFF00B10646208840041AD5D5F888006A
:100B9000A16F20F040500843C5F88800A06FB0F165
:100BA000805F03D0B0F1005F05D00AE00221201D74
:100BB00000F0B6FF03E00221584601F047F800B10B
:100BC00006462088000407D5D5F88800E16F20F09C
:100BD00080400843C5F888002068C00307D555F851
:100BE000880FD4F8801020F0004008432860304679
:100BF00000F004B8001002400070004018BCBDE8CE
:100C0000E08F00002DE9F0470F46050058D03F4E19
:100C1000306800F00700B84209D2306820F00700C1
:100C200038433060306800F00700B84248D1287877
:100C3000374CC0072CD06868032811D0022812D086
:100C4000216898B1490500293ADAA16821F0030129
:100C50000143A160FFF70EFD804641F2883910E0A4
:100C600021688901EFE721688903ECE78907EAE752
:100C7000FFF700FDA0EB0801494502D90320BDE8BC
:100C8000F087A068696800F00C00B0EB810FEFD12D
:100C90002878800705D5A068A96820F0F0000843EF
:100CA000A060306800F00700B8420BD9306820F02F
:100CB000070038433060306800F00700B84201D0C8
:100CC0000120DCE72878400705D5A068E96820F412
:100CD000E0600843A0602878000706D5A06829696D
:100CE00020F4605040EAC100A06000F041F8A16823
:100CF000084AC1F30311515C01F01F01C8400649C5
:100D00000860BDE8F0470020FFF7D2BC0020024099
:100D10000010024078240008040000200148006808
:100D200070470000040000200548064900688968F3
:100D3000054AC1F30221515C01F01F01C840704710
:100D40000400002000100240B824000805480649AD
:100D500000688968054AC1F3C221515C01F01F0196
:100D6000C84070470400002000100240B82400086A
:100D700070B52549002318468A68CC6812F00C0229
:100D800004F00306214C4FEA640509D00C2A05D073
:100D9000042A26D0082A00D1284670BD012E10D181
:100DA0000B681B0704D4D1F89430C3F3032302E08B
:100DB0000B68C3F30313164E56F823307AB10C2A8E
:100DC000EBD1C86800F00302C868C0F30210401CF1
:100DD000022A08D0032A09D0B3FBF0F008E0184635
:100DE00070BD204670BDB4FBF0F001E0B5FBF0F043
:100DF000CA68C968C2F306225043C1F34161491C65
:100E00004900B0FBF1F070BD001002400024F40076
:100E1000882400082DE9F84305007CD0FD4CA0682B
:100E200000F00C06E06800F003072878C00661D5E2
:100E300076B10C2E01D1012F0AD0A86900282068B4
:100E400078D040F001002060FFF714FC804659E0A4
:100E50002068800702D5A8690028DED0286A2168AA
:100E6000090703D5216801F0F00104E0D4F89410DB
:100E7000F02202EA1111884215D900F06BFF002818
:100E800049D1206840F0080020602068296A20F0DD
:100E9000F000084320606068E96920F47F4040EA80
:100EA0000120606015E0206840F0080020602068A4
:100EB000296A20F0F000084320606068E96920F4A6
:100EC0007F4040EA01206060286A00F043FF00286C
:100ED000D6D1FFF74DFFA168CF4AC1F30311515C92
:100EE00001F01F01C840CD4908600020FFF7E0FB7A
:100EF00000287DD12FE000BFFFF7BCFBA0EB08006E
:100F0000022876D820688007F6D5206840F00800CF
:100F10002060206801E0BBE00CE0296A20F0F000CE
:100F2000084320606068E96920F47F4040EA0120BE
:100F3000606010E020F001002060FFF79BFB80461E
:100F400006E000BFFFF796FBA0EB08000228D8D808
:100F500020688007F6D42878C00740D0082E18D023
:100F60000C2E01D1032F14D06868B0F5803F17D044
:100F7000B0F5A02F206817D020F4803020602068C2
:100F800020F4802020606868E0B1FFF773FB8046A2
:100F900014E02068800322D56868002878D01EE01D
:100FA000206840F48030EDE740F480202060F7E7CF
:100FB000FFF760FBA0EB08006428A2D8206880033C
:100FC000F6D50CE0FFF756FB804605E0FFF752FB35
:100FD000A0EB0800642894D820688003F6D4287811
:100FE00080073BD5042E11D00C2E04D1022F01E036
:100FF00036E1A1E00AD0E868002820681ED040F45D
:1010000080702060FFF736FB07460CE02068400543
:101010000CD5E8680028C1D008E000BFFFF72AFB24
:10102000C01B022893D820684005F7D56068297C4A
:1010300020F0F85040EA016060600FE020F480701A
:101040002060FFF717FB074605E000BFFFF712FB24
:10105000C01B022870D820684005F7D42878000704
:1010600029D568690028D4F8940012D040F0010016
:10107000C4F89400FFF7FEFA074604E0FFF7FAFA17
:10108000C01B022858D8D4F894008007F6D512E087
:10109000EDE020F00100C4F89400FFF7EBFA0746FA
:1010A00005E000BFFFF7E6FAC01B022844D8D4F8D9
:1010B00094008007F6D42878400768D5A06D0027F3
:1010C000C00008D4A06D40F08050A065A06D01273D
:1010D00000F08050009052480168C90512D40168A0
:1010E000814641F480710160FFF7C4FA804605E053
:1010F000FFF7C0FAA0EB080002281DD8D9F80000BD
:10110000C005F5D5A868012817D00528D4F89000A7
:1011100018D020F00100C4F89000D4F8900020F01E
:10112000040000BFC4F89000A86841F28839D0B12B
:10113000FFF7A0FA804611E06BE0D4F8900040F091
:101140000100EFE740F00400C4F89000F5E700BFAD
:10115000FFF790FAA0EB080149455AD8D4F890005F
:101160008007F5D50EE0FFF785FA804606E000BF60
:10117000FFF780FAA0EB0801494570D8D4F8900039
:101180008007F5D41FB1A06D20F08050A065A86A3B
:10119000F0B30C2E6BD00228206820F08070206005
:1011A00004D0206810F0205F47D04AE0FFF762FAD1
:1011B000064604E0FFF75EFA801B02284FD820683D
:1011C0008001F7D4286BE96A000110380843696B85
:1011D000AA6B0902120941EA42410843A98F114A48
:1011E000490802EB4151084395F8401049081201A3
:1011F00002EB41610843E060206840F080702060AD
:10120000E06840F08070E060FFF734FA054610E0D7
:101210002BE024E0001002407824000804000020A5
:10122000007000400000E0FFFFF724FA401B022896
:1012300015D820688001F7D517E0E06820F003009A
:10124000E060E0680B490840E060FFF713FA0546EC
:1012500008E000BFFFF70EFA401B022802D9032066
:10126000BDE8F88320688001F4D40020F8E701206D
:10127000F6E70000FFFFEEFE4FF0E02104280869CA
:1012800003D020F004000861704740F00400FAE742
:10129000704710B5401EB0F1807F01D3012010BD12
:1012A0004FF0E02460610F21601700F027FC002060
:1012B000A06107202061002010BD10B5FFF7E8FFF6
:1012C00010BD70477047704770B590F83C20012AF8
:1012D00024D0012480F83C40022280F83D2002689E
:1012E000536895680E4EB24202D00E4EB24203D100
:1012F00023F470064B68334323F070060B6889684B
:10130000334325F08005294353600268916080F8DB
:101310003D40002180F83C10084670BD022070BDA1
:10132000002C01400034014010B5040003D094F8B3
:101330003D0010B107E0012010BD002084F83C0002
:10134000204600F00DF8022084F83D00211D2068A1
:1013500000F0BEFD012084F83D00002010BD00001B
:1013600000B5006887B0B0F1804F1ED11048816D84
:1013700041F001018165806D694600F00100059032
:10138000082000900220019000200290039001208C
:1013900004904FF09040FFF77FF8002211461C2088
:1013A000FFF7EAF91C20FFF7DBF907B000BD0000EA
:1013B000001002400168CA6842F00102CA60006879
:1013C000826807490A40062A08D082680A40B2F5B6
:1013D000803F03D0016841F00101016000207047A7
:1013E0000700010070B5044690F83C00012817D0B2
:1013F000012584F83C50022084F83D002068826872
:10140000324E324022F47F4282600868502839D040
:101410000DDC202855D005DC98B3102843D150E0CE
:10142000022070BD30284CD040283CD141E06028DB
:1014300030D070280CD0B0F5805F03D0B0F5005FDD
:1014400031D112E020688168204A7032114016E0E4
:10145000CB68D1E90121206800F09AFD21688868F5
:10146000304040F0770088601DE0CB68D1E9012171
:10147000206800F08DFD2068816841F48041816022
:1014800011E01EE0CA684968206800F093FD502111
:10149000206806E0CA684968206800F09CFD602169
:1014A000206800F07FFD84F83D50002084F83C0067
:1014B00070BDCA684968206800F07CFD4021206842
:1014C000EFE7226801461046EBE7000088FFFEFFC9
:1014D000704770B50446006801694FF00005C943C4
:1014E000890715D4C168C943890711D4E91E016170
:1014F00001202077206880698007204602D0FFF70E
:10150000E7FF04E000F0A7F8204600F0A5F82577F3
:1015100020680169C943490717D4C168C94349070D
:1015200013D46FF0040101610220207720688069E4
:1015300010F4407F204602D0FFF7CAFF04E000F01D
:101540008AF8204600F088F8257720680169C943A9
:10155000090716D4C168C943090712D46FF00801FE
:101560000161042020772068C0698007204602D0EE
:10157000FFF7AEFF04E000F06EF8204600F06CF8D4
:10158000257720680169C943C90617D4C168C943D2
:10159000C90613D46FF0100101610820207720687C
:1015A000C06910F4407F204602D0FFF791FF04E0AD
:1015B00000F051F8204600F04FF8257720680169C7
:1015C000C943C90708D1C168C943C90704D1891EE5
:1015D0000161204600F041F820680169C94309060D
:1015E00009D4C168C943090605D46FF080010161BF
:1015F0002046FFF767FE20680169C943C90509D481
:10160000C168C943090605D46FF4807101612046A1
:10161000FFF757FE20680169C943490609D4C1682C
:10162000C943490605D46FF040010161204600F02E
:1016300015F820680169C94389060BD4C168C943FC
:10164000890607D46FF0200101612046BDE8704093
:10165000FFF739BE70BD704770477047704710B5CF
:10166000040003D094F8710010B107E0012010BD10
:10167000002084F87000204600F026F8242084F82A
:1016800071002068016821F001010160204600F02E
:1016900047FD0128EBD0606A10B1204600F0ADFC98
:1016A0002068416821F4904141602068816821F000
:1016B0002A0181602068016841F001010160204633
:1016C000BDE8104000F0FDBC00B500680E4987B0D1
:1016D000884216D10D48016E41F480410166006ECA
:1016E000694600F480400590C020009002200190DF
:1016F0000020029003200390072004900448FEF786
:10170000CBFE07B000BD00000038014000100240D1
:1017100000040048FEE7000010B511498AB00F48E8
:1017200008600846FEF768FE00B1FEE7002400945A
:101730000194029403942246694609480494FEF7F2
:10174000CEFD00B1FEE71022694605480394FEF77E
:10175000C6FD002800D0FEE70AB010BD00740040AE
:10176000080000202DE9F04FB74887B0C16C41F068
:101770001001C164C16C01F010010591C16C41F010
:101780000401C164C16C01F004010591C16C41F018
:101790000101C164C16C01F001010591C16C41F00E
:1017A0000201C164C16C01F002010591C16C41F0FC
:1017B0000801C164C06C002200F00800059040F2EE
:1017C0001511A248FEF751FF002248F204114FF014
:1017D0009040FEF74AFF00224FF234019C48FEF78A
:1017E00044FF002243F281019A48FEF73EFF0022A7
:1017F0004FF410719848FEF738FF40F21510009032
:1018000001200024CDE90104694690480394FEF7C5
:1018100043FE924D6A20CDE90005694602948B484B
:10182000FEF73AFE4FF4005000908D48CDE90104D8
:1018300069468948FEF730FE3F200B26CDE90006B9
:10184000694602948448FEF727FE03200090022098
:10185000CDE90104032003900820049069464FF06D
:101860009040FEF719FE48F2041000900120CDE9E7
:10187000010469464FF090400394FEF70DFEC0202E
:1018800000900220CDE9010403200390052004907C
:1018900069464FF09040FEF7FFFD0120CDE90005BD
:1018A000694602946A48FEF7F7FD0220CDE900067A
:1018B000694602946648FEF7EFFD4FF2340000904F
:1018C0000120CDE90104694661480394FEF7E4FD77
:1018D0004FF4207000900220CDE901040626CDE9E6
:1018E000034669465948FEF7D7FD4FF47C40009007
:1018F0000220CDE9010403204FF00A08CDE90308D6
:1019000069465248FEF7C8FD70024FF01209CDE952
:1019100000090120029003204FF0040ACDE9030AD8
:1019200069464B48FEF7B8FD4FF4407B0220CDF8E6
:1019300000B0CDE9010403200727CDE9030769467C
:101940004448FEF7A9FD4CF60440CDE90005694680
:1019500002944048FEF7A0FD43F281000090012070
:10196000CDE9010469463B480394FEF795FD4FF429
:10197000107000900120CDE90104694636480394B7
:10198000FEF78AFDB001CDE90005694602943248B0
:10199000FEF782FD4FF40070CDE9000469464FF078
:1019A00090400294FEF778FDBD0202200095CDE93B
:1019B00001040320CDE9030869464FF09040FEF78B
:1019C0006BFD02200095CDE901040320CDE903065B
:1019D00069462148FEF760FD02200090CDE9010430
:1019E000032003900520049069461A48FEF754FD31
:1019F000782000900220CDE901040320CDE90307FF
:101A000069461448FEF748FD0120CDF800B0CDE945
:101A100001900320CDE9030A69460D48FEF73CFD1D
:101A2000002211461720FEF7A7FE1720FEF798FEAA
:101A3000002211462820FEF79FFE2820FEF790FE88
:101A400007B000F00FB8000000100240001000487E
:101A500000040048000C0048000800480000111075
:101A60000000211030BCBDE8C08F000010B5134845
:101A700088B04FF0804101604FF4FA510024C0E972
:101A8000011442F21071C0E903148461FFF74CFCA9
:101A900000B1FEE74FF48050039003A90748FFF719
:101AA000A1FC00B1FEE70094694604480294FFF7E8
:101AB0000BFC002800D0FEE708B010BD1C00002081
:101AC0000C4810B50A4901604FF4E1314160002132
:101AD00081600C22C160C0E904128161C1610162B0
:101AE0004162FFF7BCFD002800D0FEE710BD0000FA
:101AF000003801405C000020FEE770470907090E2E
:101B0000002806DA00F00F0000F1E02080F8141D34
:101B1000704700F1E02080F8001470477047000023
:101B20002DE9F041444C05468846E06800268107CF
:101B300028680DD0E16801F00301814216D1A8B1F7
:101B4000E0686968C0F30210401C88420ED120E0B2
:101B5000012804D0022805D0032807D108E0216815
:101B6000890701E021684905002907DB01265FE0BC
:101B70002168890302D421684903F5E7E1686A68AE
:101B80006FF00F0321F0730103EB021211430143C5
:101B9000E160206820F080602060FEF76BFD074662
:101BA00005E000BFFEF766FDC01B022837D820689D
:101BB0000001F7D4B8F1000F18D0B8F1010F1ED012
:101BC000287D4FF07E41400801EB4060A96840EA63
:101BD00001202169194A114008432061206840F022
:101BE00080602060FEF746FD07461AE0A868E968B5
:101BF0000002090940EA41402169114AEBE7288ABD
:101C00001049400801EB4050A96840EA01202169D1
:101C10000D4AE0E7FEF72EFDC01B022801D903267E
:101C200006E020680001F5D52069A9690843206114
:101C30003046BDE8F081000000100240FF80FFF94F
:101C4000FF80FDFF0000E0FFFF809FFF2DE9F041D6
:101C50003D4C06468846E0680025810730680DD077
:101C6000E16801F00301814216D1A8B1E068716812
:101C7000C0F30210401C88420ED120E0012804D09D
:101C8000022805D0032807D108E02168890701E070
:101C900021684905002907DB012551E021688903F6
:101CA00002D421684903F5E7E16872686FF00F0319
:101CB00021F0730103EB021211430143E16020683C
:101CC00020F080502060FEF7D5FC074605E000BFFD
:101CD000FEF7D0FCC01B022829D820688000F7D46A
:101CE000B8F1000F15D0307C4FF07E41400801EB79
:101CF0004060B16840EA01206169144A114008431C
:101D00006061206840F080502060FEF7B3FC074619
:101D10000FE0B068F1680002090940EA41406169DA
:101D20000B4AEBE7FEF7A6FCC01B022801D90325EE
:101D300006E020688000F5D560697169084360613C
:101D40002846BDE8F081000000100240FF80FFF946
:101D5000FF80FDFFF8B51C4D06460024A86DC000AD
:101D600002D5FEF76FFD0DE0A86D40F08050A8652C
:101D7000A86D00F080500090FEF764FDA96D21F081
:101D80008051A965B0F5007F04D0802E07D94FF0AF
:101D900003040AE0802E08D9A02E01D804E001D166
:101DA000022402E0702E00D101240848016821F0CD
:101DB000070121430160006800F00700A04201D044
:101DC0000120F8BD0020F8BD0010024000200240B4
:101DD000704710B5FEF754FCBDE81040FFF76DBA30
:101DE00030B5B9B010200124009000250694602081
:101DF000CDE9075002202821CDE90A04CDE90C41A4
:101E00000721CDE90E1010906846FFF703F800B1E6
:101E1000FEE70F2033900320CDE9340536950421E9
:101E200033A83795FEF7EEFE00B1FEE711A81F9527
:101E30001194FEF70FFD00B1FEE74FF40070FEF7BE
:101E4000CDFC00B1FEE7FEF769FF4FF47A71B0FBFD
:101E5000F1F0FFF71EFA0420FFF70EFA00221146F8
:101E6000501EFEF789FC39B030BD00000D480168F6
:101E700041F4700101600C48016841F0010101600A
:101E8000002181600268094B1A4002608214C2601E
:101E9000026822F48022026081610249C003803915
:101EA0000860704788ED00E000100240FFFFF6EA8E
:101EB00010B50548FFF70DFBBDE810404FF4804119
:101EC0000248FEF7CEBB00001C00002000040048C2
:101ED0002DE9F0470268264B264D274E274F284C08
:101EE0004FF0804A984209D0504507D0A84205D00B
:101EF000B04203D0B84201D0A04204D122F0700C0D
:101F00004A6842EA0C02DFF87CC0DFF87C80DFF828
:101F10007C9098420FD050450DD0A8420BD0B042D3
:101F200009D0B84207D0A04205D0604503D0404553
:101F300001D0484503D122F44075CA682A434D694F
:101F400022F080022A4302608A68C2620A688262C2
:101F5000984207D0A04205D0604503D0404501D04B
:101F6000484501D10969016301214161BDE8F0875C
:101F7000002C01400004004000080040000C00401C
:101F8000003401400040014000440140004801404D
:101F900010B5846842EA032224F47F440A432243B2
:101FA000826010BD826822F070020A4342F007018D
:101FB0008160704710B5036A046A24F0010404626A
:101FC000846924F0F00444EA021423F00A020A436C
:101FD0008461026210BD10B5036A23F0100303622E
:101FE0008369046A23F4704343EA023224F0A003B5
:101FF00043EA01118261016210BD90F82410C90703
:1020000006D001684A68836A22F400321A434A60A3
:1020100090F82410890706D501684A68C36A22F43B
:1020200080321A434A6090F82410490706D50168A7
:102030004A68036B22F480221A434A6090F8241005
:10204000090706D501684A68436B22F400421A4327
:102050004A6090F82410C90606D501688A68836B27
:1020600022F480521A438A6090F82410890606D51B
:1020700001688A68C36B22F400521A438A6090F8A0
:102080002410490611D501684A68036C22F48012B5
:102090001A434A60016CB1F5801F06D101684A6895
:1020A000436C22F4C0021A434A6090F824100906D7
:1020B00006D501684A68806C22F4002202434A6017
:1020C0007047F8B5002604464667FEF7D3FA054682
:1020D000206800686FF07E47000708D52B46002275
:1020E0004FF400112046009700F06AF960B92068AB
:1020F000006840070AD52B4600224FF48001204695
:10210000009700F05DF908B10320F8BD202084F8A5
:10211000710084F8720084F870600020F8BD00003F
:102120002DE9F0410446016880682369E669184397
:1021300063691025002733431843954A0B68954E71
:10214000334003430B6020684168E36821F4405149
:10215000194341602168A069914201D0236A184364
:102160008B6823F4306303438B608B4B21688B486F
:1021700099420DD1D0F8880010F0030006D0012854
:102180005AD0022856D0032859D157E0012556E0ED
:10219000834B99420BD1D0F8880010F00C0047D047
:1021A000042849D0082845D00C2848D146E07D4B6A
:1021B00099420BD1D0F8880010F0300038D01028A8
:1021C0003AD0202836D0302839D137E0764B9942A2
:1021D0000BD1D0F8880010F0C00029D040282BD0B7
:1021E000802827D0C0282AD128E0704B99420ED1F0
:1021F000D0F8880010F440701AD0B0F5807F1BD062
:10220000B0F5007F16D0B0F5407F18D116E09142AE
:1022100015D1D0F8880010F4406009D0B0F5806F77
:102220000AD0B0F5006F05D0B0F5406F07D105E0DA
:10223000002504E0022502E0042500E008255C4BAF
:1022400000264FF4004091423DD135B1022D07D018
:10225000042D07D0082D10D107E0FEF765FD03E03F
:10226000184602E0FEF784FDA8B3626802EB420163
:10227000814202D8B0EB023F01D9012775E0DFF8B7
:1022800034815DB1022D0CD0042D13D0082DF4D172
:1022900050082905401846F1000105E0FEF744FD0D
:1022A0000AE050084449F5E70023FDF789FFA0F54F
:1022B000407156E0FEF75CFD6268010E03025008B3
:1022C00018187141F0E7E1694FF6EF7881422FD19C
:1022D000092DD2D200E048E0DFE805F0060920052C
:1022E000230505052600C8E7FEF71EFD01E0FEF701
:1022F0002DFD4100D4F8040001EB5001B1FBF0F0DA
:1023000080B2A0F110014145B7D84FF6F0710140FD
:10231000C0F3420001432068C16026E0274960689D
:10232000EAE7FEF725FDE4E74FF480316068E3E774
:10233000092DA2D2DFE805F006091E0522050505D4
:1023400025009AE7FEF7F0FC01E0FEF7FFFC0146EE
:10235000606801EB500100BFB1FBF0F080B2A0F16A
:102360001001414589D82168C860266638466666EE
:10237000BDE8F081606803EB5001EDE7FEF7F8FC83
:10238000E5E7616800EB5100B0FBF1F0E6E7000023
:1023900000800040F369FFEF003801400010024068
:1023A0000044004000480040004C00400050004005
:1023B0000024F400FFFC0F00000024F40048E801B2
:1023C0002DE9F041984617460E460446069D1DE04D
:1023D000681C1BD02DB1FEF74DF9A0EB0800A842F8
:1023E00014D92068016821F4D071016020688168E7
:1023F00021F001018160202084F8710084F87200CE
:10240000002084F870000320BDE8F0812068C069D6
:1024100036EA000004D00020B842D9D00020F3E70B
:102420000120F9E7FEE702E008C8121F08C1002AF0
:10243000FAD170477047002001E001C1121F002A45
:10244000FBD17047FEF724F9FFF7CAFCFFF78AF9C2
:10245000FFF736FBFFF760F9FFF708FB0122910356
:102460000348FEF702F90348FEF7A4FFFEE7000069
:10247000000400481C0000200000000000000000D4
:102480000102030406070809A0860100400D0300AD
:10249000801A060000350C0040420F0080841E00A8
:1024A00000093D0000127A000024F40000366E019D
:1024B0000048E801006CDC02000000000102030497
:1024C000E024000800000020080000002624000886
:1024D000E824000808000020D0040000362400088A
:0824E0000000000000093D00AE
:040000050800018965
:00000001FF
