:020000040800F2
:10000000800600209D0100084D1D0008971800087B
:100010004B1D0008E5010008112100080000000048
:100020000000000000000000000000002120000887
:100030007D020008000000006F1D0008232000085A
:10004000B7010008B7010008B7010008B7010008B0
:10005000B7010008B7010008B7010008B7010008A0
:10006000B7010008B7010008B7010008B701000890
:10007000B70100084D020008590200086502000897
:10008000B7010008B7010008B7010008B701000870
:10009000B7010008B7010008B7010008AD02000869
:1000A000B7010008B7010008B7010008B701000850
:1000B000B7010008B7010008B7010008B701000840
:1000C000B7010008B7010008B7010008B701000830
:1000D000B7010008B7010008B7010008B701000820
:1000E0007F020008B7010008B7010008B701000847
:1000F000B7010008B7010008B7010008B701000800
:10010000B7010008B7010008B7010008B7010008EF
:10011000B7010008B701000805210008B701000871
:10012000B7010008B7010008B7010008B7010008CF
:1001300071020008B7010008B7010008B701000804
:10014000B7010008B7010008B7010008B7010008AF
:10015000B7010008B7010008B7010008B70100089F
:10016000B7010008B7010008B7010008B70100088F
:10017000B7010008B70100080000000000000000FF
:10018000B7010008B7010008DFF80CD000F018F83C
:1001900000480047332100088006002006488047B9
:1001A00006480047FEE7FEE7FEE7FEE7FEE7FEE75C
:1001B000FEE7FEE7FEE7FEE7C12000088901000830
:1001C000064C074D06E0E06840F0010394E80700A4
:1001D00098471034AC42F6D3FFF7DAFF8C210008C1
:1001E000AC210008FEE700001749884201D1002039
:1001F000704715492031884201D1012070471249CA
:100200004031884201D1022070470F496031884255
:1002100001D1032070470C498031884201D104206C
:1002200070470949A031884201D10520704706492D
:10023000C031884201D1062070470349E03188422D
:10024000D5D107207047000000600140014800F050
:100250005BBB000040010020014800F055BB0000DE
:10026000D0010020014800F04FBB00001802002020
:10027000014800F049BB000088010020704710B51C
:100280004FF4806000F00EFC4FF4006000F00AFCB8
:100290004FF4005000F006FC4FF4804000F002FCE8
:1002A000BDE810404FF4004000F0FCBB10B520202A
:1002B00000F0F8FB402000F0F5FB802000F0F2FB9E
:1002C000BDE810404FF4807000F0ECBB70472DE9A2
:1002D000F0470446407900270E4601280BD04FF026
:1002E000010984F8059002202071306802F01005A1
:1002F000042803D043E00220BDE8F0874FF0030854
:1003000002BB00F0C5FC074604E000F0C1FCC01BC6
:1003100001280FD82068406B0004F6D4012000F0BB
:10032000B1FB2168B069086416E000F0B1FCC01BA5
:10033000012807D9206940F00800206184F8048072
:100340000320D9E72068406B0028EEDB012000F095
:1003500099FB2168B06948642068816C40F2FF32E3
:10036000AA409143F269AA40114381642068C16C9C
:10037000FF22AA409143326AAA401143C164306906
:10038000012808D12268916B1F20A8408143706921
:10039000A840084390632268D16B0720A84081439E
:1003A000B36830681843F3681843A8400843D06323
:1003B000206801684FF48042AA409143016022689E
:1003C000116840F6FC70A84081437068A84008435B
:1003D000106020680168C022AA409143016084F83F
:1003E00004900020607187E7704770B5044600688C
:1003F00001684FF00405890411D5416B89040ED5BD
:100400002571216941F001012161E9024163206800
:10041000016821F4805101602046FFF7E5FF206864
:100420000168890014D5416B890011D525712169B6
:1004300041F0020121614FF00051416320680168E1
:1004400021F0805101602046BDE87040FFF73EBFBB
:1004500070BD70B5040003D02079002510B105E00F
:10046000012070BD6571204600F008F8022020715F
:10047000256101202071002070BD00002DE9F04FA2
:10048000064600682B4987B088424FD12A48816DC3
:1004900041F000518165806D4FF0030B00F000507A
:1004A00005903020CDE9000B0025694602954FF0FC
:1004B000904000F003FB224C20484FF010082060D1
:1004C00006206060C4E902854FF48067C4E90675C0
:1004D0004FF0800A4FF480792562C4E904A92046D0
:1004E00000F070FA18B17A2116A001F012FEB46083
:1004F000A6621C4C1A48C4E90285C4E90675256247
:10050000C4E9000BC4E904A9204600F05BFA18B165
:100510008B210CA001F0FDFDF46000221146362075
:10052000A66200F037FC362000F028FC07B000F08F
:100530001BB8000000740040001002403000024070
:10054000400100202E2E2F5372632F73746D3332AF
:100550006C3478785F68616C5F6D73702E63000037
:10056000580402408801002030BCBDE8C08F000064
:1005700070B5040006D02068FFF736FE374D55F8F9
:10058000200008B1012070BD204600F06FF834480B
:100590000168491C016000683249012819D13248BC
:1005A000026822F0804202600268A3681A43026077
:1005B000026822F47F0202602279012A05D10268D2
:1005C000A38901EB03431A430260026842F0004230
:1005D00002602068026822F471420260226810689A
:1005E00023691843D4E90536334318431060206863
:1005F000026822F00F020260D4E90720024320685B
:1006000003681A4302602068826822F45F028260F5
:1006100020688268636A1A43238D01EB03410A4311
:1006200082602068416801F007014160E06A216B47
:10063000000240EAC101206842681143416020681D
:10064000016841F080010160012084F834002068D5
:10065000FFF7CAFD45F82040002070BD6002002071
:10066000080000200000FFFF0060014000B51148B5
:1006700087B0416800291BD10168491C016001292C
:1006800008D10D48016E41F080710166006E00F0E6
:10069000807005904FF4207000900220019000209F
:1006A00002900390062004906946044800F006FA80
:1006B00007B000BD000000200010024000100048FC
:1006C00070B590F84C400023C4B1FF2C16D00468DC
:1006D00025680C4E3540256004686FF30F01012A30
:1006E000256804D045EA01212160026307E04FF448
:1006F000802646EA01210D432560F6E701231846CE
:1007000070BD0000FFFFFBF870B5040031D03C491C
:100710002068884205D1606801282AD0E068012855
:1007200027D00125002065642063A564206520464C
:1007300000F06CF82068016821F400210160207A43
:1007400001282068016816D021F000510160607A0C
:1007500001282068016811D021F40011016020688F
:10076000016846F2087291430160E068022808D0EF
:100770000CE0012070BD41F00051E7E741F40011A9
:10078000ECE720680168626911430160207C012860
:10079000206801682ED021F010010160607C0128E2
:1007A0002068016829D021F020010160206841699A
:1007B000144A1140416120684169E269124B1143BA
:1007C000228C03EB0242636A5B1E1A4311434161B0
:1007D00060686063E068A063A069E063207C84F8DF
:1007E00040002068016841F00101016084F84C502C
:1007F000002070BD41F01001CFE741F02001D4E7A7
:100800000061014000FF001C0000FFFF2DE9F043E4
:1008100005462F4887B000264168D1B90168491CB8
:100820000160012908D12B48016E41F080710166F9
:10083000006E00F0807005904FF420700090022050
:10084000CDE901060620CDE903606946224800F0A3
:1008500035F92249286880274FF400784FF4006961
:10086000884215D11F4C1E48C4E9000604F10C0053
:10087000A66080E8C003E6612046266200F0A2F888
:1008800018B1E92118A001F044FCEC62AC62A56249
:10089000124928688031884216D11148194C143009
:1008A000C4E9000604F10C00A66080E8C003E6611C
:1008B0002046266200F086F818B1FF210AA001F058
:1008C00028FCEC62AC62A56207B0BDE8F0830000D2
:1008D00000000020001002400010004800610140AC
:1008E00044000240D00100202E2E2F5372632F733C
:1008F000746D33326C3478785F68616C5F6D7370DF
:100900002E63000018020020F0B4016C0C6801682E
:100910000D6890F8442002F01C06042202FA06F347
:10092000234211D06B070FD50B689B0603D40B68CD
:1009300023F004030B6090F8441001F01C018A407E
:10094000016C4A60016B1DE0022303FA06F727429F
:100950004FF0000C4FF0010218D0AF0716D50C680D
:10096000A40605D40C6824F00A040C6080F8252045
:1009700090F8441001F01C018B40016C4B6080F832
:1009800024C0C16A00291AD0F0BC08470823B3402C
:10099000234214D02B0712D50B6823F00E030B60F3
:1009A00090F84410036C01F01C0102FA01F1596047
:1009B000C26380F8252080F824C0416BE2E7F0BCD8
:1009C0007047000070B568B12B4C036814212B4AA6
:1009D000A34209D22A4C1C44B4FBF1F18900C0E9BE
:1009E00010210BE0012070BD234C64421C44B4FB79
:1009F000F1F189004164204908390164022180F83D
:100A000025101C6847F6F0718C43D0E90215294384
:100A1000D0E904563543294385692943C5692943EB
:100A2000056A2943214319608168B1F5804F19D0C7
:100A3000036C0F21934202D152F8A83F02E00E4A04
:100A4000A032136890F8444004F01C04A1408B438A
:100A5000136090F84430416803F01C039940136818
:100A6000194311600021C163012280F8252080F81C
:100A70002410084670BD0000080402400000024037
:100A8000F8FFFDBF70B5044600F002F90546601C92
:100A900000D0641C00F0FCF8401BA042FAD370BDEB
:100AA00070470000044910B50A68024202D008608D
:100AB000FFF7F6FF10BD0000140401402DE9F84FC8
:100AC000DFF898B100234FF0010C4FF0030A4FF00C
:100AD0000F090BF1040EB9E00CFA03F4224070D0B8
:100AE0004D68022D01D0122D0ED1DD0800EB8508D6
:100AF000D8F820505E07F70E09FA07F6B5430E69DD
:100B0000BE402E43C8F8206007685E0091F804805C
:100B10000AFA06F508F00308AF4308FA06F848EAAF
:100B20000708C0F800804F68012F05D0022F03D0BE
:100B3000112F01D0122F13D1D0F80880CF6828EAE6
:100B40000508B74047EA08078760D0F804800F79A6
:100B500028EA0408C7F300179F4047EA08074760E0
:100B6000D1F804806FEA0807BF0706D1C76AA74318
:100B7000C8F3C0049C403C43C462C468AC438D6865
:100B8000B5402543C5604C68E4005ED5344C256E05
:100B900045F001052566246E23F0030504F00104E9
:100BA0000094304C2E19B4689D072F0F09FA07F5F1
:100BB000AC43B0F1904F05D02B4DA84204D1012594
:100BC0001CE042E0002519E0284DA84201D1022591
:100BD00014E0274DA84201D103250FE0254DA8427E
:100BE00001D104250AE0244DA84201D1052505E0E4
:100BF000224DA84201D1062500E00725BD4025432E
:100C0000B560DBF800405D464E689443F60300D5BE
:100C100014432C60DEF8004075464E689443B603DA
:100C200000D514432C600D4D08352C684E68944354
:100C3000F60200D514432C60084D0C352C684E6824
:100C40009443B60200D514432C605B1C0A6832FA48
:100C500003F57FF441AF00F013B800000004014039
:100C60000010024000000140000400480008004855
:100C7000000C00480010004800140048001800480C
:100C800018BCBDE8E08F0AB181617047816270478E
:100C900001480068704700000C000020024801680D
:100CA000491C0160704700000C00002010B50024B2
:100CB000032000F08FF8002000F008F808B10124AC
:100CC00001E000F01BF8204610BD000070B505469D
:100CD00009484FF47A7100240068B0FBF1F000F08D
:100CE000C2FD08B1012404E000222946501E00F094
:100CF00051F8204670BD0000100000201E4808B5C5
:100D0000016E41F001010166016E01F001010091E7
:100D1000816D41F080518165806D00F080500090C0
:100D2000032000F057F8002211466FF00B0000F08E
:100D300031F8002211466FF00A0000F02BF8002273
:100D400011466FF0090000F025F800221146501FEF
:100D500000F020F800221146101F00F01BF80022BE
:100D60001146901E00F016F80022BDE8084011461A
:100D7000501E00F00FB800000010024000F01F02EB
:100D8000012191404009800000F1E020C0F80011ED
:100D900070470000F0B40E4B1B680C46C3F30223EF
:100DA000C3F10705042D00D90425191D072901D217
:100DB000002300E0DB1E012606FA05F1491E214052
:100DC00099409E40761E16403143F0BC00F0BFBFF4
:100DD0000CED00E0064900F0070208684FF6FF033B
:100DE000184040EA0220034A1043086070470000A0
:100DF0000CED00E00000FA051649B0F5007F086828
:100E0000C0F3412009D0022805D0086820F4C06052
:100E100040F480600860002070470128FBD008681B
:100E200020F4C06040F4007008600B483222006873
:100E300050430A4AB0FBF2F0401C00E0401E4A69F1
:100E4000520501D50028F9D148694005E3D50320B2
:100E500070470000007000401000002040420F006A
:100E60000248006800F4C060704700000070004055
:100E70002DE9F84F044600270088E54D3E46010560
:100E800004F1200B1DD5606E78B1B0F5800F11D044
:100E9000B0F5000F04D0B0F5400F22D001270FE0CD
:100EA000E86840F48030E8601BE00021201D00F07D
:100EB0005FFF03E00021584600F0F0FF070010D06C
:100EC0003E462088C00426D5A06EC0B1B0F1807F18
:100ED0001AD0B0F1007F0DD0B0F1407F19D00127BA
:100EE00018E0D5F88800616E20F440000843C5F88A
:100EF0008800E6E7E86840F48030E86009E0002117
:100F0000201D00F035FF03E00021584600F0C6FF29
:100F10000746F7B13E46206880033AD5A86D4FF0EA
:100F20000008C00009D4A86D40F08050A865A86DE5
:100F30004FF0010800F080500090DFF8D8A2DAF8F6
:100F4000001041F48071CAF80010FFF7A1FE81463D
:100F500010E0D5F88800A16E20F040700843C5F875
:100F60008800D8E7FFF794FEA0EB0900022801D91A
:100F7000032705E0DAF80000C005F3D5002F7CD088
:100F80004FEA0706B8F1000F03D0A86D20F080509B
:100F9000A8652078C00707D0D5F88800A16B20F09D
:100FA00003000843C5F888002078800707D5D5F8E6
:100FB0008800E16B20F00C000843C5F88800207819
:100FC000400707D5D5F88800216C20F03000084391
:100FD000C5F888002078000707D5D5F88800616C2F
:100FE00020F0C0000843C5F888002078C00607D567
:100FF000D5F88800A16C20F440700843C5F888003B
:101000002078800607D5D5F88800E16C20F4406090
:101010000843C5F888002088800507D5D5F88800E2
:10102000E16D20F440200843C5F888002088400581
:1010300007D5D5F88800216E20F440100843C5F884
:1010400088002078400607D5D5F88800216D20F467
:1010500040500843C5F888002078000607D5D5F829
:101060008800616D20F440400843C5F8880020885E
:10107000C00509D5D5F8880000E01CE0A16D20F47A
:1010800040300843C5F8880020884FF0006780048E
:101090004FF080684FD5D5F88800E16E20F04060B1
:1010A0000843C5F88800E06EB8423CD1E86840F4D7
:1010B0008010E8603FE0D5F8900010F4407015D043
:1010C000D4F88410814211D0D5F89000D5F8901052
:1010D00020F4407041F48031C5F89010D5F890109C
:1010E00021F48031C5F89010C5F89000C00710D0E9
:1010F000FFF7CEFD074641F2883906E0FFF7C8FD4D
:10110000C11B494501D903263CE7D5F8900080076B
:10111000F4D5D5F89000D4F8841020F4407008433A
:10112000C5F890002EE7404505D10121201D00F0B3
:101130001FFE00B106462068000317D5D5F88800C9
:10114000216F20F040600843C5F88800206FB84246
:1011500004D1E86840F48010E86007E0404505D11C
:101160000121201D00F004FE00B106462068400366
:1011700017D5D5F88800616F20F040600843C5F8A6
:101180008800606FB84204D1E86840F48010E860DD
:1011900007E0404505D10121201D00F0E9FD00B127
:1011A0000646208840041AD5D5F88800A16F20F0A3
:1011B00040500843C5F88800A06FB0F1805F03D0AD
:1011C000B0F1005F05D00AE00221201D00F0D0FD43
:1011D00003E00221584600F061FE00B10646208877
:1011E000000407D5D5F88800E16F20F0804008435F
:1011F000C5F888002068C00307D555F8880FD4F8D3
:10120000801020F0004008432860304600F004B809
:10121000001002400070004018BCBDE8E08F0000E4
:101220002DE9F0470F46050058D03F4E306800F0DA
:101230000700B84209D2306820F007003843306018
:10124000306800F00700B84248D12878374CC00712
:101250002CD06868032811D0022812D0216898B1D8
:10126000490500293ADAA16821F003010143A16090
:10127000FFF70EFD804641F2883910E021688901B0
:10128000EFE721688903ECE78907EAE7FFF700FD4C
:10129000A0EB0801494502D90320BDE8F087A0680A
:1012A000696800F00C00B0EB810FEFD1287880075F
:1012B00005D5A068A96820F0F0000843A060306858
:1012C00000F00700B8420BD9306820F0070038431F
:1012D0003060306800F00700B84201D00120DCE740
:1012E0002878400705D5A068E96820F4E060084345
:1012F000A0602878000706D5A068296920F460500E
:1013000040EAC100A06000F01DF8A168084AC1F3DE
:101310000311515C01F01F01C84006490860BDE897
:10132000F0470020FFF7D2BC00200240001002402E
:101330004C210008100000200148006870470000A0
:101340001000002070B52549002318468A68CC6833
:1013500012F00C0204F00306214C4FEA640509D098
:101360000C2A05D0042A26D0082A00D1284670BDB0
:10137000012E10D10B681B0704D4D1F89430C3F3AD
:10138000032302E00B68C3F30313164E56F8233011
:101390007AB10C2AEBD1C86800F00302C868C0F328
:1013A0000210401C022A08D0032A09D0B3FBF0F037
:1013B00008E0184670BD204670BDB4FBF0F001E0B7
:1013C000B5FBF0F0CA68C968C2F306225043C1F306
:1013D0004161491C4900B0FBF1F070BD00100240B2
:1013E0000024F4005C2100082DE9F84305007CD0BE
:1013F000FD4CA06800F00C06E06800F003072878B8
:10140000C00661D576B10C2E01D1012F0AD0A86992
:101410000028206878D040F001002060FFF738FCF9
:10142000804659E02068800702D5A8690028DED0F0
:10143000286A2168090703D5216801F0F00104E05A
:10144000D4F89410F02202EA1111884215D900F064
:10145000A9FD002849D1206840F0080020602068DC
:10146000296A20F0F000084320606068E96920F4F0
:101470007F4040EA0120606015E0206840F00800ED
:1014800020602068296A20F0F0000843206060682E
:10149000E96920F47F4040EA01206060286A00F09A
:1014A00081FD0028D6D1FFF74DFFA168CF4AC1F3D7
:1014B0000311515C01F01F01C840CD4908600020B4
:1014C000FFF704FC00287DD12FE000BFFFF7E0FB11
:1014D000A0EB0800022876D820688007F6D520689F
:1014E00040F008002060206801E0BBE00CE0296AC1
:1014F00020F0F000084320606068E96920F47F4034
:1015000040EA0120606010E020F001002060FFF759
:10151000BFFB804606E000BFFFF7BAFBA0EB080068
:101520000228D8D820688007F6D42878C00740D091
:10153000082E18D00C2E01D1032F14D06868B0F5F6
:10154000803F17D0B0F5A02F206817D020F480304E
:101550002060206820F4802020606868E0B1FFF7F8
:1015600097FB804614E02068800322D56868002835
:1015700078D01EE0206840F48030EDE740F4802011
:101580002060F7E7FFF784FBA0EB08006428A2D8EF
:1015900020688003F6D50CE0FFF77AFB804605E073
:1015A000FFF776FBA0EB0800642894D8206880033E
:1015B000F6D4287880073BD5042E11D00C2E04D108
:1015C000022F01E036E1A1E00AD0E8680028206897
:1015D0001ED040F480702060FFF75AFB07460CE0F5
:1015E000206840050CD5E8680028C1D008E000BF9D
:1015F000FFF74EFBC01B022893D820684005F7D5A3
:101600006068297C20F0F85040EA016060600FE0DB
:1016100020F480702060FFF73BFB074605E000BF29
:10162000FFF736FBC01B022870D820684005F7D4AE
:101630002878000729D568690028D4F8940012D0CA
:1016400040F00100C4F89400FFF722FB074604E0D5
:10165000FFF71EFBC01B022858D8D4F8940080075F
:10166000F6D512E0EDE020F00100C4F89400FFF799
:101670000FFB074605E000BFFFF70AFBC01B02286F
:1016800044D8D4F894008007F6D42878400768D569
:10169000A06D0027C00008D4A06D40F08050A06568
:1016A000A06D012700F08050009052480168C905E4
:1016B00012D40168814641F480710160FFF7E8FAB5
:1016C000804605E0FFF7E4FAA0EB080002281DD8E9
:1016D000D9F80000C005F5D5A868012817D005285D
:1016E000D4F8900018D020F00100C4F89000D4F88D
:1016F000900020F0040000BFC4F89000A86841F2F8
:101700008839D0B1FFF7C4FA804611E06BE0D4F815
:10171000900040F00100EFE740F00400C4F89000B2
:10172000F5E700BFFFF7B4FAA0EB080149455AD826
:10173000D4F890008007F5D50EE0FFF7A9FA8046AF
:1017400006E000BFFFF7A4FAA0EB0801494570D8F6
:10175000D4F890008007F5D41FB1A06D20F0805020
:10176000A065A86AF0B30C2E6BD00228206820F088
:101770008070206004D0206810F0205F47D04AE0DD
:10178000FFF786FA064604E0FFF782FA801B02287C
:101790004FD820688001F7D4286BE96A000110381F
:1017A0000843696BAA6B0902120941EA42410843E6
:1017B000A98F114A490802EB4151084395F840109E
:1017C0004908120102EB41610843E060206840F0E3
:1017D00080702060E06840F08070E060FFF758FAA9
:1017E000054610E02BE024E0001002404C210008E8
:1017F00010000020007000400000E0FFFFF748FAF2
:10180000401B022815D820688001F7D517E0E06852
:1018100020F00300E060E0680B490840E060FFF75B
:1018200037FA054608E000BFFFF732FA401B0228EE
:1018300002D90320BDE8F88320688001F4D4002099
:10184000F8E70120F6E70000FFFFEEFE4FF0E02191
:101850000428086903D020F004000861704740F0B4
:101860000400FAE7704710B5401EB0F1807F01D345
:10187000012010BD4FF0E02460610F21601700F0DF
:1018800066FA0020A06107202061002010BD10B57D
:10189000FFF7E8FF10BDFEE710B511498AB00F4809
:1018A00008600846FEF7D5FD00B1FEE7002400946D
:1018B0000194029403942246694609480494FEF771
:1018C00006FD00B1FEE71022694605480394FEF7C5
:1018D000FEFC002800D0FEE70AB010BD00740040F6
:1018E000140000202DE9F04130482F490024C0E9C0
:1018F0000014047201254572CE058027C661C0E937
:101900000875FEF701FF00B1FEE72848264954306C
:101910008031C0E9001404724572C661C0E90875DF
:10192000FEF7F2FE00B1FEE720481F49A830E0397B
:10193000016005710226C0E9024689150461C0E90B
:1019400005410427C0E90747C0E90945C4620463AB
:10195000FEF70EFE00B1FEE714481349E030C0392F
:1019600001600571C0E90246046144618461C0E917
:101970000747C0E90945C4620463FEF7F9FD00B1F9
:10198000FEE701220A490948FEF79AFE00B1FEE788
:101990000648012207495430FEF792FE002800D085
:1019A000FEE7BDE8F0810000006101402800002052
:1019B0000200010004000200194808B5816C41F0E2
:1019C00001018164816C01F001010091816C41F0A1
:1019D00002018164806C002200F002000090114638
:1019E0000D20FFF7D7F90D20FFF7C8F900221146A7
:1019F0000E20FFF7CFF90E20FFF7C0F900221146A5
:101A00000F20FFF7C7F90F20FFF7B8F900221146A2
:101A10003C20FFF7BFF9BDE808403C20FFF7AEB916
:101A2000001002402DE9F04FBF4887B0C16C41F073
:101A30001001C164C16C01F010010591C16C41F04D
:101A40000401C164C16C01F004010591C16C41F055
:101A50000101C164C16C01F001010591C16C41F04B
:101A60000201C164C16C01F002010591C16C41F039
:101A70000801C164C06C002200F00800059040F22B
:101A80001511AA48FFF7FFF8002248F204114FF0A1
:101A90009040FFF7F8F800224FF23401A448FFF716
:101AA000F2F8002243F28101A248FFF7ECF800228D
:101AB0004FF41071A048FFF7E6F840F215100090BF
:101AC00001200024CDE90104694698480394FEF7FB
:101AD000F5FF9A4D6A20CDE90005694602949348C6
:101AE000FEF7ECFF4FF4005000909548CDE901045B
:101AF00069469148FEF7E2FF3F200B26CDE900063C
:101B0000694602948C48FEF7D9FF0320009002201A
:101B1000CDE90104032003900820049069464FF0AA
:101B20009040FEF7CBFF48F2041000900120CDE971
:101B3000010469464FF090400394FEF7BFFF082070
:101B400000900220CDE901040120CDE9034069465F
:101B50004FF09040FEF7B2FF4FF0C00B0220CDF8DF
:101B600000B0CDE9010403200390052004906946EC
:101B70004FF09040FEF7A2FF0120CDE90005694635
:101B800002946B48FEF79AFF0220CDE900066946F1
:101B900002946748FEF792FF4FF234000090012054
:101BA000CDE90104694662480394FEF787FF4FF4CC
:101BB0007C4000900220CDE9010403200A27CDE9F2
:101BC000030769465948FEF779FF4FF440604FF02C
:101BD0001208CDE900080120029003204FF004090B
:101BE000CDE9030969465248FEF768FF4FF4407A91
:101BF0000220CDF800A0CDE9010403200726CDE99D
:101C0000030669464B48FEF759FF4CF60440CDE900
:101C10000005694602944748FEF750FF43F28100F1
:101C200000900120CDE90104694642480394FEF783
:101C300045FF4FF4107000900120CDE90104694682
:101C40003D480394FEF73AFF4FF4C070CDE900051C
:101C5000694602943848FEF731FF4FF40070CDE931
:101C6000000469464FF090400294FEF727FFB5024A
:101C700002200095CDE901040320CDE90307694660
:101C80004FF09040FEF71AFF02200095CDE90104C5
:101C9000032003900620049069462748FEF70EFFB4
:101CA00002200090CDE90104032003900520049058
:101CB00069462048FEF702FF782000900220CDE917
:101CC00001040320CDE9030669461A48FEF7F6FE33
:101CD0000220CDF800B0CDE901040320CDE90306D0
:101CE00069461348FEF7EAFE0120CDF800A0CDE9D1
:101CF00001800320CDE9030969460D48FEF7DEFEA9
:101D0000002211461720FFF745F81720FFF736F895
:101D1000002211462820FFF73DF82820FFF72EF873
:101D200007B000F00FB8000000100240001000489B
:101D300000040048000C0048000800480000111092
:101D40000000211030BCBDE8C08FFEE770470907D6
:101D5000090E002806DA00F00F0000F1E02080F8FC
:101D6000141D704700F1E02080F8001470477047A0
:101D70002DE9F041444C05468846E068002681077D
:101D800028680DD0E16801F00301814216D1A8B1A5
:101D9000E0686968C0F30210401C88420ED120E060
:101DA000012804D0022805D0032807D108E02168C3
:101DB000890701E021684905002907DB01265FE06A
:101DC0002168890302D421684903F5E7E1686A685C
:101DD0006FF00F0321F0730103EB02121143014373
:101DE000E160206820F080602060FEF751FF074628
:101DF00005E000BFFEF74CFFC01B022837D8206863
:101E00000001F7D4B8F1000F18D0B8F1010F1ED0BF
:101E1000287D4FF07E41400801EB4060A96840EA10
:101E200001202169194A114008432061206840F0CF
:101E300080602060FEF72CFF07461AE0A868E9687A
:101E40000002090940EA41402169114AEBE7288A6A
:101E50001049400801EB4050A96840EA012021697F
:101E60000D4AE0E7FEF714FFC01B022801D9032644
:101E700006E020680001F5D52069A96908432061C2
:101E80003046BDE8F081000000100240FF80FFF9FD
:101E9000FF80FDFF0000E0FFFF809FFF2DE9F04184
:101EA0003D4C06468846E0680025810730680DD025
:101EB000E16801F00301814216D1A8B1E0687168C0
:101EC000C0F30210401C88420ED120E0012804D04B
:101ED000022805D0032807D108E02168890701E01E
:101EE00021684905002907DB012551E021688903A4
:101EF00002D421684903F5E7E16872686FF00F03C7
:101F000021F0730103EB021211430143E1602068E9
:101F100020F080502060FEF7BBFE074605E000BFC2
:101F2000FEF7B6FEC01B022829D820688000F7D42F
:101F3000B8F1000F15D0307C4FF07E41400801EB26
:101F40004060B16840EA01206169144A11400843C9
:101F50006061206840F080502060FEF799FE0746DF
:101F60000FE0B068F1680002090940EA4140616988
:101F70000B4AEBE7FEF78CFEC01B022801D90325B4
:101F800006E020688000F5D56069716908436061EA
:101F90002846BDE8F081000000100240FF80FFF9F4
:101FA000FF80FDFFF8B51C4D06460024A86DC0005B
:101FB00002D5FEF755FF0DE0A86D40F08050A865F2
:101FC000A86D00F080500090FEF74AFFA96D21F047
:101FD0008051A965B0F5007F04D0802E07D94FF05D
:101FE00003040AE0802E08D9A02E01D804E001D114
:101FF000022402E0702E00D101240848016821F07B
:10200000070121430160006800F00700A04201D0F1
:102010000120F8BD0020F8BD001002400020024061
:10202000704710B5FEF73AFEBDE81040FFF72FBC31
:1020300010B5B8B010200090012000246021069057
:10204000CDE907410221CDE90A100C9028200D901E
:102050000720CDE90E0168461091FFF7C5F900B1E0
:10206000FEE70F2033900320CDE934043694042199
:1020700033A83794FFF7D4F800B1FEE74FF480306F
:102080001190319411A8FEF7F3FE00B1FEE74FF472
:102090000070FEF7B1FE00B1FEE7FFF74DF94FF417
:1020A0007A71B0FBF1F0FFF7DEFB0420FFF7CEFB07
:1020B00000221146501EFEF76DFE38B010BD000024
:1020C0000D48016841F4700101600C48016841F05D
:1020D00001010160002181600268094B1A40026021
:1020E0008214C260026822F4802202608161024987
:1020F000C00380390860704788ED00E0001002409E
:10210000FFFFF6EA0148FEF770B900001400002056
:10211000FEE7FEE702E008C8121F08C1002AFAD154
:1021200070477047002001E001C1121F002AFBD157
:102130007047FEF7BBFDFFF77BFFFFF773FCFFF770
:102140003BFCFFF7A9FBFFF7CDFBFEE7000000001B
:10215000000000000102030406070809A086010030
:10216000400D0300801A060000350C0040420F00AD
:1021700080841E0000093D0000127A000024F40053
:1021800000366E010048E801006CDC02AC2100085A
:10219000000000201400000014210008C0210008E5
:1021A000140000206C06000024210008000000003C
:1021B00000000000000000000000000000093D00D9
:040000050800018965
:00000001FF
